:100000000C9473010C9416120C9443120C949B01E3
:100010000C949B010C949B010C94B7010C949B01D4
:100020000C949B010C949B010C949B010C949B01E0
:100030000C949B010C949B010C949B010C949B01D0
:100040000C9470120C949B010C94CE150C94001619
:100050000C949B010C949B010C949B010C949B01B0
:100060000C949B010C949B01BB07EA06C607C607CC
:10007000C607C6071207C607D606C607C607C607BD
:10008000C607C607C6072807C607C607BB07C607B1
:10009000C607A40720620A00202D3E20000A4176F0
:1000A00061696C61626C6520636F6D6D616E647314
:1000B0003A0A20203C6E6E3E206920202020202D10
:1000C00020736574206E6F64652049447320287323
:1000D00074616E64617264206E6F6465206964731C
:1000E0002061726520312E2E3330290A20203C6E8B
:1000F0003E20622020202020202D20736574204D7A
:10010000487A2062616E64202834203D20343333E5
:100110002C2038203D203836382C2039203D2039FD
:100120003135290A20203C6E6E6E3E20672020204B
:10013000202D20736574206E6574776F726B206755
:10014000726F7570202852464D3132206F6E6C7977
:1001500020616C6C6F7773203231322C2030203D5F
:1001600020616E79290A20203C6E3E2063202020E9
:100170002020202D2073657420636F6C6C65637480
:10018000206D6F64652028616476616E6365642C00
:10019000206E6F726D616C6C792030290A20202EE0
:1001A0002E2E2C3C6E6E3E2061202D2073656E64D9
:1001B0002064617461207061636B657420746F20CA
:1001C0006E6F6465203C6E6E3E2C207265717565A5
:1001D00073742061636B0A20202E2E2E2C3C6E6ED1
:1001E0003E2073202D2073656E642064617461204D
:1001F0007061636B657420746F206E6F6465203C62
:100200006E6E3E2C206E6F2061636B0A20202E2EB6
:100210002E2C3C6E3E207020202D205365742041F2
:10022000432041646170746572205663616C2031B3
:1002300070203D20554B2C203270203D20555341DD
:100240000A202076202020202020202020202D2061
:1002500053686F77206669726D7761726520766585
:100260007273696F6E0A00010402000302048A05BA
:100270000506C30B2019421E2C25802E882F2D37F2
:100280000038003C8F3D106F200000000008000285
:10029000010000030407000000000000000001024C
:1002A0000408102040800102040810200102040804
:1002B00010200404040404040404020202020202E2
:1002C00003030303030300000000230026002900AA
:1002D00000000000250028002B0000000000240082
:1002E00027002A00301611241FBECFEFD8E0DEBF52
:1002F000CDBF12E0A0E0B1E0EAE6F7E302C005906E
:100300000D92A43EB107D9F725E0A4EEB2E001C0FA
:100310001D92A93EB207E1F712E0C6EED2E004C09A
:100320002297FE010E94861BC43ED107C9F70E9496
:1003300074160C94B31B0C9400001F93CF93DF939F
:10034000EC01FE011491112371F01A3029F46DE0D3
:100350008CE495E00E94C316612F8CE495E00E9426
:10036000C3162196EECFDF91CF911F9108951F9272
:100370000F920FB60F9211242F933F934F935F93D9
:100380006F937F938F939F93AF93BF93EF93FF935D
:100390000E94FD0AFF91EF91BF91AF919F918F91C4
:1003A0007F916F915F914F913F912F910F900FBE71
:1003B0000F901F90189561E089E00E942A1462E373
:1003C00070E080E090E00E94E91260E089E00C9427
:1003D0002A1461E089E00E942A1469E170E080E05B
:1003E00090E00E94E91260E089E00E942A1461E036
:1003F00089E00E942A1469E170E080E090E00E94A8
:10040000E91260E089E00C942A14CF93DF936AE04C
:1004100070E080E090E00E94E91220E436E0409134
:10042000060160910901809108010E94500ACAE00A
:10043000D0E0D0934903C09348034CE168E473E0F3
:1004400080E00E94BF0A64E670E080E090E00E94D5
:10045000E912219770F782E00E94DE0A10924903A8
:1004600010924803DF91CF910895FF920F931F934D
:10047000CF93DF930E94A90A882309F461C0F0900A
:10048000E90480912F0590913005892B09F059C01E
:100490006FE071E08CE495E00E94C11664ED71E0BC
:1004A0008CE495E00E94C1166091E8046F7170E0E1
:1004B0004AE050E08CE495E00E94931764ED71E00F
:1004C0008CE495E00E94C1160AEE14E0E8018C2F3E
:1004D000801B8F1570F4699170E04AE050E08CE465
:1004E00095E00E94C71760E28CE495E00E94C31675
:1004F000EECF62E171E08CE495E00E94C11660915C
:10050000360570E0759567957195619571094AE0BA
:1005100050E08CE495E00E9493176BE672E08CE467
:1005200095E00E94C1168CE495E00E94CA16809165
:10053000E80485FF1BC08091E80487FF04C016C053
:1005400019C080E017C064E171E08CE495E00E947E
:10055000C1168091E80486FD0BC08091E8048F717C
:10056000806C40E060E070E00E94BD0A81E002C063
:1005700080E8F7CFDF91CF911F910F91FF90089501
:100580008091E6028823D1F10E94BB0A811101C04B
:10059000089561E089E00E942A1468EC70E080E030
:1005A00090E00E94E91260E089E00E942A1488E944
:1005B00090E00E949D016091E80270E04AE050E006
:1005C0008CE495E00E94C71784E990E00E949D01A9
:1005D0008091E602813681F080E09091E7029923D4
:1005E00011F09064892B4091E8026AEE72E00E945B
:1005F000BD0A1092E602089580E2EFCF08956CE103
:1006000071E08CE495E00E94C11622E030E04DECF0
:100610005CEC65EB72E48CE495E00E94BA1867E24A
:1006200071E08CE495E00E94C11622E030E04DECD0
:100630005CEC65EB72E48CE495E00E94BA1862E32E
:1006400071E08CE495E00E94C11640914003509106
:100650004103609142037091430322E030E08CE457
:1006600095E00E94B81864E772E08CE495E00E947F
:10067000DE1680913B03882309F449C06CE371E0E6
:100680008CE495E00E94DE1680916503882331F0AA
:1006900067E671E08CE495E00E94C11663E771E0C3
:1006A0008CE495E00E94C1164091440350914503AB
:1006B000609146037091470322E030E08CE495E0BE
:1006C0000E94BA186AE771E08CE495E00E94C116B6
:1006D0004AE050E0609139038CE495E00E94C01735
:1006E00064E772E08CE495E00E94DE1661E871E058
:1006F0008CE495E00E94C11622E030E04AE959E915
:1007000069ED7FE38CE495E00E94BA1824C06FE89D
:1007100071E08CE495E00E94DE16809165038823E9
:1007200031F06DEB71E08CE495E00E94DE1666EC32
:1007300071E08CE495E00E94C1164AE050E06091BF
:1007400039038CE495E00E94C01764E772E08CE402
:1007500095E00E94DE1680913A03811103C066ED98
:1007600071E024C080913F03882331F065EE71E091
:100770008CE495E00E94DE1680913E03882331F0E0
:1007800061EF71E08CE495E00E94DE1680913D03FC
:10079000882331F06DEF71E08CE495E00E94DE1665
:1007A00080913C03882331F069E072E08CE495E0AD
:1007B0000E94DE1660ED77E080E090E00E94E91292
:1007C00065E172E08CE495E00E94DE16809164039E
:1007D000882309F44CC068E272E08CE495E00E9442
:1007E000DE1667E372E08CE495E00E94C1164AE0F1
:1007F00050E0609108018CE495E00E94C0176DE321
:1008000072E08CE495E00E94C1168091090181306C
:1008100031F464E472E08CE495E00E94C1168091AA
:100820000901823031F46BE472E08CE495E00E94BF
:10083000C11680910901833031F462E572E08CE4E5
:1008400095E00E94C11669E572E08CE495E00E9493
:10085000C11660910601709107014AE050E08CE4F6
:1008600095E00E949B178DE990E00E949D0164E154
:1008700070E080E090E00C94E912EF92FF920F9309
:100880001F93CF93DF93CDB7DEB76C970FB6F89475
:10089000DEBF0FBECDBF8CE1E8E4F3E0DE011196D0
:1008A00001900D928A95E1F763E672E08CE495E0A1
:1008B0000E94C1164AE050E0609108018CE495E086
:1008C0000E94C0178E010F5F1F4F7E018DE1E80E61
:1008D000F11C60E28CE495E00E94C316F80161917E
:1008E0008F014AE050E08CE495E00E94C0170E159D
:1008F0001F0579F767E672E08CE495E00E94C11667
:100900008CE495E00E94CA166AE070E080E090E016
:100910006C960FB6F894DEBF0FBECDBFDF91CF91BE
:100920001F910F91FF90EF900C94E912CF92DF92FC
:10093000EF92FF920F931F93CF93DF93EB0100E0B1
:1009400010E0C12CD12C76010C171D077CF480E03F
:100950000E944C13DC01B2509D010E948A1BC60EFE
:10096000D71EE81EF91E0F5F1F4FEECFC701B6015D
:100970000E94CF196B017C01BE01882777FD80950D
:10098000982F0E94D1199B01AC01C701B6010E94AA
:100990003619DF91CF911F910F91FF90EF90DF906B
:1009A000CF900C94EC1A61E089E00E94F11361E0B1
:1009B00089E00E942A1462E088E00E94F11362E05C
:1009C0008BE00E94F1138BE00E946014892B19F0D8
:1009D00081E08093640361E085E00E94F11360E0B0
:1009E00085E00E942A1460E083E00E94F11326E073
:1009F00040E056E960E070E08CE495E00E946C1500
:100A00006DE672E08CE495E00E94C11622E030E0D1
:100A10004AE959E969E97FE38CE495E00E94BA1854
:100A200066E772E08CE495E00E94DE166CE872E006
:100A30008CE495E00C94DE1681E00E944C131816AD
:100A400019064CF481E080933F0380913A038F5F55
:100A500080933A0302C010923F0382E00E944C133D
:100A6000181619064CF481E080933E0380913A03F6
:100A70008F5F80933A0302C010923E0384E00E948D
:100A80004C13181619064CF481E080933D038091B5
:100A90003A038F5F80933A0302C010923D0385E0D2
:100AA0000E944C13181619064CF481E080933C0305
:100AB00080913A038F5F80933A0302C010923C0307
:100AC00080913A03811103C081E080933F0360E08D
:100AD00089E00E942A1461E08EE00E94F1136FEF1A
:100AE00070E08EE00E94691360E070E08EE00E948A
:100AF000691360E08EE00E94F11364EF71E080E022
:100B000090E00E94E91264EF76E080E090E00E94BD
:100B1000960422E538EB4EE55FE30E94851A609368
:100B2000400370934103809342039093430320E07A
:100B300030E044EB52E40E94811A181624F481E05C
:100B400080933B03089510923B030895EF92FF9228
:100B50000F931F9364E670E080E090E00E94E9123A
:100B600080916503882371F080E090E0A2E0B3E417
:100B70008093440390934503A0934603B0934703A7
:100B80008EE611C080910A0190910B01A0910C0199
:100B9000B0910D018093440390934503A0934603C5
:100BA000B093470386EE809339030E94D30480916B
:100BB000640381110E9405026CED75E080E090E015
:100BC0000E94E9120E941C050E94FF022DEC3CECE1
:100BD00045EB52E461E070E086E894E00E94170D76
:100BE0002DEC3CEC45EB52E462E070E086E294E0F0
:100BF0000E94170D2DEC3CEC45EB52E463E070E0F5
:100C000086EC93E00E94170D2DEC3CEC45EB52E492
:100C100064E070E086E693E00E94170D80913B034C
:100C20008823F1F12091440330914503409146031C
:100C3000509147031AE9E12E19E9F12E09ED1FE35E
:100C400060E070E086E894E00E94FB0C2091440391
:100C500030914503409146035091470360E070E0B6
:100C600086E294E00E94FB0C2091440330914503FE
:100C7000409146035091470360E070E086EC93E0BA
:100C80000E94FB0C209144033091450340914603A0
:100C90005091470360E070E086E693E00E94FB0C11
:100CA0001F910F91FF90EF900895CF92DF92EF92F6
:100CB000FF920F931F93CF9380916503882371F068
:100CC00080E090E0A2E0B3E4809344039093450376
:100CD000A0934603B09347038EE611C080910A01AA
:100CE00090910B01A0910C01B0910D0180934403F0
:100CF00090934503A0934603B093470386EE8093F9
:100D0000390388E00E946014892B11F461E001C06E
:100D100060E085E00E942A148CE495E00E9489142A
:100D2000892B09F4ABC18CE495E00E94A21490EDEC
:100D3000980F9A30A8F44091E4025091E5029AE0AD
:100D4000949F9001959F300D112420533109280F55
:100D5000311D87FD3A953093E5022093E4028CC162
:100D60008C3281F4E091E902E63408F081C181E03F
:100D70008E0F8093E902F0E0E651FD4F8091E4028E
:100D8000808376C181320CF471C1482F552747FD0D
:100D90005095652F752FFA01E156F109E631F105FD
:100DA00008F0F4C0EC5CFF4F0C94841B8091E402CB
:100DB0009091E502009771F08093080120916403FF
:100DC000222309F4E7C020E436E040910601609157
:100DD000090125C08091E402843031F0883031F07F
:100DE000893031F463E005C061E003C062E001C016
:100DF00060E0862F90E09093E5028093E402892BD7
:100E000009F4C8C06093090180916403882309F440
:100E1000C1C020E436E040910601809108010E94A3
:100E2000500AB8C04091E4025091E50241155105C5
:100E300009F4B0C050930701409306018091640308
:100E4000882309F4A7C020E436E060910901E5CFCA
:100E50006091E4027091E5026115710509F49AC090
:100E60006230710521F481E08093650393C080E0D6
:100E700090E00E94CF1920E030E048EC52E40E945C
:100E800036199B01AC0160930A0170930B018093AA
:100E90000C0190930D01609344037093450380937C
:100EA0004603909347031092650380913B03882388
:100EB000B1F11AE9E12E19E9F12E09ED1FE360E025
:100EC00070E086E894E00E94FB0C2091440330918E
:100ED0004503409146035091470360E070E086E28D
:100EE00094E00E94FB0C2091440330914503409113
:100EF00046035091470360E070E086EC93E00E9467
:100F0000FB0C2091440330914503409146035091DE
:100F1000470360E070E086E693E00E94FB0C67E91F
:100F200072E08CE495E00E94C11640914403509118
:100F30004503609146037091470322E030E08CE462
:100F400095E00E94B81826C065EA72E08CE495E04E
:100F50000E94C11622E030E04AE959E969E97FE3DD
:100F60008CE495E00E94B8186EEA72E08CE495E09B
:100F70000E94DE160FC08093E6028091E902809302
:100F8000E8028091E4028093E70204C08DE990E0DA
:100F90000E949D0180916403882309F452C060E29D
:100FA0008CE495E00E94C316609108016F71605C4B
:100FB0008CE495E00E94C31660EB72E08CE495E04F
:100FC0000E94C116609108016F7170E04AE050E024
:100FD0008CE495E00E94931763EB72E08CE495E05B
:100FE0000E94C11660910601709107014AE050E02D
:100FF0008CE495E00E94931766EB72E08CE495E038
:101000000E94C11680910901813039F0823041F08F
:10101000833049F463E973E008C061EB71E005C017
:1010200064E673E002C060E070E04AE050E08CE407
:1010300095E00E9493176AEB72E08CE495E00E94C1
:10104000C1166FEB72E08CE495E00E94C1166091CE
:10105000650370E04AE050E08CE495E00E9493174D
:1010600064ED71E08CE495E00E94DE161092E902D6
:101070001092E5021092E4020E94E901809164035B
:10108000882371F10E94350281110E94E9010E94BA
:10109000C0020E94BA12C0903003D0903103E09099
:1010A0003203F09033036C197D098E099F09613674
:1010B0007A4E8F4F9F4FA0F020E436E0409106011A
:1010C00060910901809108010E94500A0E94BA12A1
:1010D0006093300370933103809332039093330312
:1010E0000E94BA12C0903503D0903603E0903703C7
:1010F000F09038036C197D098E099F096938734196
:101100008105910508F4C4C10E94DB0180913B0375
:10111000882359F140ED57E064E170E086E894E0FF
:101120000E944E0D6091860470918704809188041E
:10113000909189040E949E1970934903609348031B
:1011400020E030E048EC52E4609192047091930406
:1011500080919404909195040E94851A0E949E1992
:1011600070934F0360934E0324C068EC75E086E8EB
:1011700094E00E940A116B017C01C09139036C2F2D
:1011800070E080E090E00E94D1199B01AC01C701A2
:10119000B6010E94851A0E949E19709349036093BC
:1011A000480324E6C29FC001112490934F0380930B
:1011B0004E0320E030E048EC52E4609196047091D8
:1011C000970480919804909199040E94851A0E9436
:1011D0009E19709355036093540320E030E048EC6F
:1011E00052E460918E0470918F04809190049091EC
:1011F00091040E94851A0E949E1970935103609376
:10120000500380913B03882389F040ED57E064E16F
:1012100070E086E294E00E944E0D60912604709189
:101220002704809128049091290415C068EC75E08A
:1012300086E294E00E940A116B017C0160913903FF
:1012400070E080E090E00E94D1199B01AC01C701E1
:10125000B6010E94851A0E949E1970934B036093F9
:101260004A0320E030E048EC52E46091360470918B
:10127000370480913804909139040E94851A0E94A5
:101280009E19709357036093560320E030E048ECBA
:1012900052E460912E0470912F048091300490915B
:1012A00031040E94851A0E949E1970935303609323
:1012B000520380913B03882389F040ED57E064E1BD
:1012C00070E086EC93E00E944E0D6091C603709131
:1012D000C7038091C8039091C90315C068EC75E0FD
:1012E00086EC93E00E940A116B017C016091390346
:1012F00070E080E090E00E94D1199B01AC01C70131
:10130000B6010E94851A0E949E197093590360933A
:10131000580320E030E048EC52E46091D60370912D
:10132000D7038091D8039091D9030E94851A0E9417
:101330009E19709361036093600320E030E048ECF5
:1013400052E46091CE037091CF038091D0039091CD
:10135000D1030E94851A0E949E1970935D036093C9
:101360005C0380913B038823B9F040ED57E064E1D2
:1013700070E086EC93E00E944E0D609166037091E0
:10138000670380916803909169030E949E1970938E
:101390005B0360935A031BC068EC75E086EC93E036
:1013A0000E940A116B017C016091390370E080E0BA
:1013B00090E00E94D1199B01AC01C701B6010E94C7
:1013C000851A0E949E19709359036093580320E078
:1013D00030E048EC52E4609176037091770380919D
:1013E0007803909179030E94851A0E949E19709348
:1013F00063036093620320E030E048EC52E46091C4
:101400006E0370916F0380917003909171030E943D
:10141000851A0E949E1970935F0360935E0380910A
:101420003B038823D9F040ED57E068E770E086E899
:1014300094E00E94241060919A0470919B04809122
:101440009C0490919D0428EC30E040E050E00E9424
:10145000431B30934D0320934C0306C080E797E174
:1014600090934D0380934C0380913403882321F0A3
:10147000F8941092340378940E943D040E94BA12AA
:10148000609335037093360380933703909338034A
:10149000CF911F910F91FF90EF90DF90CF90089523
:1014A000CF92DF92EF92FF921F93CF93DF93C82FDB
:1014B000162FD42FF901AFEFA60FA33028F4B0E018
:1014C000AB53BD4FAC9101C0A0E0B0E020E836E9DD
:1014D00048E950E00E94A81B6B017C01212F30E0FD
:1014E000A4ECB9E00E94921BDF019B01AC010E94B9
:1014F000A81BC60ED71EE81EF91EC701B6010E9422
:10150000430BD0933A058C2F8F718093390564E19A
:1015100070E080E090E00E94E91280913905882314
:1015200041F043E050E06EE97CE080E00E94E6118B
:1015300003C080E00E9406120E94780BC093E6046C
:101540008C2FDF91CF911F91FF90EF90DF90CF9084
:10155000089587EE94E00E94D10B9093300580931C
:101560002F0520912F053091300581E02F3F3F4F0F
:1015700009F480E008950C94600B0C942A0CEF920F
:10158000FF921F93CF93DF931F92CDB7DEB7182F33
:101590007B0149830E94600B4981811105C0498309
:1015A0000E94A90A4981F5CFB701812F0F90DF91E1
:1015B000CF911F91FF90EF900C942A0CCF93C82FDE
:1015C0000E94710B8823B9F0CC23D1F383B7817FBC
:1015D000C33021F0C23021F49CE003C094E001C08C
:1015E00090E0892B83BF83B7816083BF889583B7E1
:1015F0008E7F83BFE5CFCF910895809131058F5FB6
:101600008093310508958627682F62956827062EF6
:10161000669566956025062E669560256770082E8E
:10162000892F669507946795902D86270694679570
:10163000902586270895E8982A988EBD0DB407FE58
:10164000FDCF8EB56EBD0DB407FEFDCF8EB52A9AC7
:10165000E89A089560E00C941B0B88E20E942A0B24
:10166000807521F080E00E942A0BF7CF0895CF9378
:10167000C82F81E00E942A0B682F637E6C2B81E8C3
:10168000CF910C941B0B22E0660F771F881F991FC8
:101690002A95D1F729E03DE340E050E00E94431B4A
:1016A00066E0220F331F441F551F6A95D1F7209320
:1016B0003B0530933C0540933D0550933E0508950E
:1016C00080913405853021F480913505882311F00F
:1016D00080E0089584E0809334050E94370B81E018
:1016E00008959091340581E094300CF080E00895E5
:1016F000CF93DF932A9A229A2A9A84B18C6284B972
:1017000080E58CBD8DB581608DBD6AEA8FEA0E944F
:101710001B0B8FE20E942A0B8A3AB9F765E58FEA24
:101720000E941B0B8FE20E942A0B8535B9F7C7E692
:10173000D2E0FE018491882339F03196649180686B
:101740000E941B0B2296F5CF60913A0580EB0E9418
:101750001B0B80913B0590913C05A0913D05B091FC
:101760003E05BD018827992787E80E941B0B8091C1
:101770003B0590913C05A0913D05B0913E05692F38
:101780007A2F8B2F992788E80E941B0B60913B05CD
:1017900089E80E941B0B84E080933405DF91CF9190
:1017A0000895CF93DF93EC0180913405843019F0D4
:1017B0008530E1F045C01092E90410923505609142
:1017C0003A058FEF9FEF0E94030B909338058093AB
:1017D0003705D0933305C093320585E080933405F7
:1017E0000E942D0B80E10E94370B2AC08091E904F2
:1017F0002091350590E0049630E08217930724F09D
:10180000809135058834E0F084E0809334050E94AF
:10181000370B8091E904833430F081E090E09093BD
:101820003805809337058091E80486FF0CC09091BD
:1018300039059F3141F08091E8048F71891719F0C3
:101840008FEF9FEF04C08091370590913805DF91AD
:10185000CF910895CF934093E904FB0120E030E05D
:1018600050E02417350744F4D901A651BB4F91919C
:101870009C932F5F3F4FF5CF86FD04C0807E9091F3
:101880003905890F8093E80460913A058FEF9FEF47
:101890000E94030B90933805809337059091E904DB
:1018A0008EEF891B809334050E942D0B8CE00E94E3
:1018B000370B60E085EA0E941B0B80913405833072
:1018C000DCF588E20E942A0B87FDF7CF8091340572
:1018D00087FF1BC09091E90480913405E0913205A7
:1018E000F0913305E90FF11DE80FF11D87FDFA9521
:1018F000C3816C2F80913705909138050E94030BAE
:1019000090933805809337050DC080913405882366
:1019100029F0813031F4C091380504C0C0913705F9
:1019200001C0CAEA6C2F80E80E941B0B809134052D
:101930008F5F80933405C1CFCF9108958091340596
:10194000853009F049C084E20E942A0B8093360555
:10195000789488E20E942A0B8075D9F3809135052E
:1019600081110FC0E0913205F0913305809135056A
:1019700091E0980F9093350590913A05E80FF11D8D
:10198000908380E00E942A0BE0913205F0913305AC
:101990009091350521E0290F20933505E90FF11DC0
:1019A0008083682F80913705909138050E94030B42
:1019B00090933805809337058091E904209135058F
:1019C00090E0049630E082179307A4F080913505EB
:1019D000883408F4BECF089588E20E942A0B83FF62
:1019E00009C084E0809334050E94370B60E885EAE3
:1019F0000C941B0B0895EF92FF920F931F93FC0121
:101A0000718F608F248F358F468F578FE4A2F5A298
:101A100006A317A340E050E060E074E440AF51AF8C
:101A200062AF73AF1F910F91FF90EF900895FC018B
:101A3000738F628F20A331A342A353A340E050E0F1
:101A400060E074E444AF55AF66AF77AF08958EE4BD
:101A500080937C0062E070E080E090E00E94E912F8
:101A600080917A00806480937A0080917A0086FD6C
:101A7000FCCF809178002091790030E0322F22272E
:101A8000442737FD4095542F282B60E070E381E117
:101A900090E00E94651BCA01B90108952F923F9200
:101AA0004F925F926F927F928F929F92AF92BF926E
:101AB000CF92DF92EF92FF920F931F93CF93DF931A
:101AC000CDB7DEB7AA970FB6F894DEBF0FBECDBF75
:101AD0009AA789A77E8F6D8F8A010E94270D6D8B33
:101AE0007E8B8F8B988F0E94BA124B015C0169A488
:101AF0007AA42CE5620E711CC801A0E0B0E0898BCD
:101B00009A8BAB8BBC8BA9A5BAA558968C910E94D9
:101B10004C13F30191838083BC01882777FD809566
:101B2000982F0E94D1196B017C012DEC3CEC4CE00C
:101B300054E40E94321987FF0BC011E026E636E616
:101B400046EE53E4C701B6010E94811A18160CF044
:101B500010E00E94BA12681979098A099B0929893B
:101B60003A894B895C89261737074807590708F0D7
:101B700046C00E94BA12698F7A8F8B8F9C8F00E0CB
:101B800010E01A82198249A55AA54C5B5F4F58A3F1
:101B90004F8F89A59AA5885B9F4F9C878B87A9A5A6
:101BA000BAA5A45BBF4FBAA3A9A3E9A5FAA5E05BB8
:101BB000FF4FFE87ED8729A53AA5205C3F4F3CA348
:101BC0002BA349A55AA54C5A5F4F5EA34DA389A5E7
:101BD0009AA5885A9F4F988B8F87A9A5BAA5A25A14
:101BE000BF4FBE83AD8329A43AA4BFE52B0E311CA1
:101BF000E9A5FAA5E45AFF4FF8A7EFA343C11123C3
:101C000009F481CFB6CF0E94BA12298D3A8D4B8D3F
:101C10005C8D621B730B840B950B29893A894B8968
:101C20005C89621773078407950708F033C10F5F5B
:101C30001F4FE9A5FAA580A991A9A2A9B3A984A7D4
:101C400095A7A6A7B7A7808D0E944C13A9A5BAA5F2
:101C500099969C938E9398975A968C910E944C13C8
:101C60003C01E9A5FAA593A782A720A531A53A874B
:101C70002987B901882777FD8095982F0E94D1196F
:101C80006B017C01A9A5BAA5D8968D909D90AD90C9
:101C9000BC90DB97A50194010E94CD1820E030E0B4
:101CA00040E85AE30E94851A9B01AC01C501B401CA
:101CB0000E94CE189B01AC01E9A5FAA560AF71AFF7
:101CC00082AF93AFC701B6010E94CD184B015C01F2
:101CD000A9A5BAA5D0966D937D938D939C93D39728
:101CE000B301882777FD8095982F0E94D1196B0149
:101CF0007C01E9A5FAA544AC55AC66AC77ACA30170
:101D000092010E94CD1820E030E040E85AE30E94A2
:101D1000851A9B01AC01C301B2010E94CE189B0140
:101D2000AC01A9A5BAA5DC966D937D938D939C9388
:101D3000DF97C701B6010E94CD186B017C01E9A5B0
:101D4000FAA564AB75AB86AB97ABA5019401C50151
:101D5000B4010E94851A9B01AC01AF8DB8A16D93AF
:101D60007D938D939C931397EB85FC8560817181A6
:101D7000828193810E94CE18AB85BC856D937D9343
:101D80008D939C931397A7019601C701B6010E94FA
:101D9000851A9B01AC01E9A1FAA16083718382835A
:101DA0009383AD85BE856D917D918D919C910E94AF
:101DB000CE18ED85FE856083718382839383A9A508
:101DC000BAA59C964D905D906D907C909F97A301D5
:101DD0009201C501B4010E94CD18E9A5FAA524A17C
:101DE00035A146A157A10E94851A9B01AC01C301F0
:101DF000B2010E94CE18ABA1BCA16D937D938D93CF
:101E00009C931397A70196010E94851A9B01AC0130
:101E1000EDA1FEA16083718382839383AF85B8892E
:101E20006D917D918D919C910E94CE18EF85F889DE
:101E30006083718382839383D1018C91ED81FE81D4
:101E40008083AFA1B8A58D919C91E985FA858E1705
:101E50009F070CF0F6C0E1E0D101EC9301301105D1
:101E600029F4F1018081AD81BE818C93ED81FE81E9
:101E70009081D1018C91981729F0E981FA813196EE
:101E8000FA83E98329813A814D8D5E8D24173507C8
:101E900008F4B9CEAD89BE89BD01882777FD80954C
:101EA000982F0E94D11920E030E04AE754E40E94C4
:101EB000361920E030E040E85AE30E94851A2B01F1
:101EC0003C01E9A5FAA5248D358D468D578D0E94DC
:101ED000851A4B015C01B80180E090E00E94CF19A7
:101EE0006B017C0129A43AA4F8E42F0E311C9B015C
:101EF000AC01D1016D917D918D919C910E9436191B
:101F00000E94EC1A9B01AC01C501B4010E94851A24
:101F100069837A838B839C83E9A5FAA56487758797
:101F20008687978720A131A142A153A1C301B201A5
:101F30000E94851A2B013C0109A51AA5005B1F4FC1
:101F4000A7019601D8016D917D918D919C910E9480
:101F500036190E94EC1A9B01AC01C301B2010E9428
:101F6000851A6D837E838F839887E9A5FAA5608B98
:101F7000718B828B938BA3019201C501B4010E94E6
:101F8000851AA9A4BAA4F8E5AF0EB11CD5012D910C
:101F90003D914D915C910E94851AA70196010E9486
:101FA00036196B017C01E9A5FAA5608371838283F0
:101FB00093832D813E814F81588569817A818B8100
:101FC0009C810E94851A9B01AC01A9A5BAA5149613
:101FD0006D937D938D939C931797C701B6010E94D3
:101FE0003619E9A5FAA56087718782879387D101A1
:101FF0001D921D921D921C921397F801108211825E
:1020000012821382D5011D921D921D921C9213976C
:10201000AA960FB6F894DEBF0FBECDBFDF91CF9169
:102020001F910F91FF90EF90DF90CF90BF90AF90F6
:102030009F908F907F906F905F904F903F902F90E8
:102040000895D1011C920ACF2F923F924F925F9236
:102050006F927F928F929F92AF92BF92CF92DF92B8
:10206000EF92FF920F931F93CF93DF93CDB7DEB71D
:102070002A970FB6F894DEBF0FBECDBF9A87898727
:1020800078876F832A010E94270D0E94BA124B01A4
:102090005C0189859A85845A9F4F9E838D83612C2C
:1020A000712CE985FA85808D0E944C13ED81FE81AB
:1020B00091838083BC01882777FD8095982F0E94AB
:1020C000D1196B017C012DEC3CEC4CE054E40E94F6
:1020D000321987FF0BC011E026E636E646EE53E4E0
:1020E000C701B6010E94811A18160CF010E00E9478
:1020F000BA12681979098A099B09461657066806B3
:102100007906C8F40E94BA126B017C010E94C612C3
:102110004B015C0100E010E0212C312C89859A856F
:10212000825A9F4F9C838B83E985FA85E15AFF4F42
:10213000FA83E98340C0112309F4B3CFE3CF0E94AF
:10214000BA126C197D098E099F09641575058605FB
:102150009705B8F50F5F1F4FE985FA85808D0E94BE
:102160004C13E985FA8591A780A7E981FA8120813E
:10217000EB81FC812083ED81FE8120813181281754
:1021800039070CF043C081E0E981FA818083013096
:10219000110531F4E981FA818081EB81FC81808332
:1021A000EB81FC819081E981FA818081981719F097
:1021B000FFEF2F1A3F0A8F8198852816390608F4F9
:1021C000BECF0E94C612681979098A099B09E98560
:1021D000FA85648B758B868B978B2A960FB6F8944D
:1021E000DEBF0FBECDBFDF91CF911F910F91FF904A
:1021F000EF90DF90CF90BF90AF909F908F907F90A7
:102200006F905F904F903F902F900895E981FA81F1
:102210001082BDCF2F923F924F925F926F927F922A
:102220008F929F92AF92BF92CF92DF92EF92FF92E6
:102230000F931F93CF93DF9300D000D000D0CDB782
:10224000DEB79E838D837A8369830E94270D2B01DD
:102250003C0100E010E08D819E81805B9F4F1C015E
:10226000ED81FE81E45BFF4FFC83EB8389819A81E2
:102270000817190709F455C0ED81FE81828D0E946F
:102280004C13ED81FE8193A782A7BC01882777FDBF
:102290008095982F0E94D1196B017C01ED81FE8100
:1022A00084AC95ACA6ACB7ACA50194010E94CD1846
:1022B00020E030E040E85AE30E94851A9B01AC011F
:1022C000C501B4010E94CE189B01AC01ED81FE81D5
:1022D00064AF75AF86AF97AFC701B6010E94CD1846
:1022E000ED81FE8164AB75AB86AB97AB9B01AC0116
:1022F0000E94851A9B01AC01EB81FC816083718394
:1023000082839383F10160817181828193810E9434
:10231000CE18F10160837183828393830F5F1F4F17
:10232000A5CFB80180E090E00E94CF199B01AC01DD
:10233000F10160817181828193810E9436190E942E
:10234000EC1A6B017C01B201882777FD8095982FEC
:102350000E94D11920E030E04AE754E40E94361987
:1023600020E030E040E85AE30E94851AED81FE81CA
:1023700020A131A142A153A10E94851AA701960173
:102380000E94851AED81FE81608B718B828B938B0D
:10239000F101108211821282138226960FB6F894F0
:1023A000DEBF0FBECDBFDF91CF911F910F91FF9088
:1023B000EF90DF90CF90BF90AF909F908F907F90E5
:1023C0006F905F904F903F902F9008958230E8F487
:1023D000E82FF0E0EE0FFF1FE15CFA4F718360839E
:1023E000813041F0809169008C7F842B809369005B
:1023F000E89A089580916900440F551F440F551FB6
:10240000837F842B80936900E99A0895823068F471
:10241000813011F0E89801C0E998E82FF0E0EE0F64
:10242000FF1FE15CFA4F1182108208951F920F92F4
:102430000FB60F9211242F933F934F935F936F9397
:102440007F938F939F93AF93BF93EF93FF9380916D
:102450003F0590914005892B29F0E0913F05F091CF
:1024600040050995FF91EF91BF91AF919F918F9199
:102470007F916F915F914F913F912F910F900FBE80
:102480000F901F9018951F920F920FB60F92112464
:102490002F933F934F935F936F937F938F939F936C
:1024A000AF93BF93EF93FF938091410590914205C5
:1024B000892B29F0E0914105F09142050995FF91A2
:1024C000EF91BF91AF919F918F917F916F915F91AC
:1024D0004F913F912F910F900FBE0F901F90189525
:1024E0001F920F920FB60F9211242F933F938F9349
:1024F0009F93AF93BF938091440590914505A09120
:102500004605B09147053091430523E0230F2D3751
:1025100020F40196A11DB11D05C026E8230F0296E7
:10252000A11DB11D2093430580934405909345055B
:10253000A0934605B09347058091480590914905C1
:10254000A0914A05B0914B050196A11DB11D809344
:10255000480590934905A0934A05B0934B05BF9158
:10256000AF919F918F913F912F910F900FBE0F9040
:102570001F9018952FB7F894609144057091450508
:1025800080914605909147052FBF08953FB7F89475
:102590008091480590914905A0914A05B0914B055D
:1025A00026B5A89B05C02F3F19F00196A11DB11DAE
:1025B0003FBF6627782F892F9A2F620F711D811DCB
:1025C000911D42E0660F771F881F991F4A95D1F72A
:1025D0000895CF92DF92EF92FF92CF93DF936B013A
:1025E0007C010E94C612EB01C114D104E104F10484
:1025F00089F00E94CC180E94C6126C1B7D0B683EAD
:10260000734090F381E0C81AD108E108F108C8517D
:10261000DC4FEACFDF91CF91FF90EF90DF90CF902A
:102620000895789484B5826084BD84B5816084BD4A
:1026300085B5826085BD85B5816085BDEEE6F0E03B
:10264000808181608083E1E8F0E010828081826097
:102650008083808181608083E0E8F0E08081816018
:102660008083E1EBF0E0808184608083E0EBF0E048
:10267000808181608083EAE7F0E0808184608083EC
:102680008081826080838081816080838081806896
:1026900080831092C10008958E3008F08E508770AC
:1026A00020910E0190E4299F90011124822B8093A8
:1026B0007C0080917A00806480937A0080917A0017
:1026C00086FDFCCF809178002091790090E0922BDC
:1026D00008951F93CF93DF93182FEB0161E00E94C1
:1026E000F113209711F460E004C0CF3FD10539F415
:1026F00061E0812FDF91CF911F910C942A14E12F7B
:10270000F0E0E657FD4FE491E330F9F048F4E130B2
:10271000B9F0E230A1F584B5806284BDC8BD34C093
:10272000E730E9F0E83019F1E43049F580918000B4
:10273000806280938000D0938B00C0938A0024C075
:1027400084B5806884BDC7BD1FC08091800080684B
:1027500080938000D0938900C093880015C0809139
:10276000B00080688093B000C093B3000DC080912A
:10277000B00080628093B000C093B40005C0C03840
:10278000D1050CF0B5CFAFCFDF91CF911F91089558
:10279000833081F028F4813099F08230A1F00895DF
:1027A0008730A9F08830B9F08430D1F4809180006E
:1027B0008F7D03C0809180008F7780938000089583
:1027C00084B58F7702C084B58F7D84BD08958091D4
:1027D000B0008F7703C08091B0008F7D8093B000F0
:1027E0000895CF93DF9390E0FC01E256FD4F2491D2
:1027F000FC01EE54FD4F8491882349F190E0880F4D
:10280000991FFC01E652FD4FA591B49180539D4F55
:10281000FC01C591D4919FB7611108C0F8948C91C7
:10282000209582238C93888182230AC0623051F4E0
:10283000F8948C91322F309583238C938881822B4E
:10284000888304C0F8948C91822B8C939FBFDF9176
:10285000CF9108950F931F93CF93DF931F92CDB71E
:10286000DEB7282F30E0F901E657FD4F8491F901DA
:10287000E256FD4F1491F901EE54FD4F04910023EF
:10288000C9F0882321F069830E94C8136981E02F71
:10289000F0E0EE0FFF1FE053FD4FA591B4919FB7FD
:1028A000F8948C91611103C01095812301C0812B94
:1028B0008C939FBF0F90DF91CF911F910F9108953F
:1028C000CF93DF93282F30E0F901E657FD4F849135
:1028D000F901E256FD4FD491F901EE54FD4FC49138
:1028E000CC2391F081110E94C813EC2FF0E0EE0F81
:1028F000FF1FEA53FD4FA591B4912C912D2381E048
:1029000090E021F480E002C080E090E0DF91CF9180
:102910000895FC01818D228D90E0805C9F4F821B89
:1029200091098F7399270895FC01918D828D9817D5
:1029300031F0828DE80FF11D858D90E008958FEFC5
:102940009FEF0895FC01918D828D981761F0828D23
:10295000DF01A80FB11D5D968C91928D9F5F9F73D3
:10296000928F90E008958FEF9FEF089586E296E1B1
:10297000892B49F080E090E0892B29F00E942616EF
:1029800081110C9400000895FC01848DDF01A80FD3
:10299000B11DA35ABF4F2C91848D90E001968F7387
:1029A0009927848FA689B7892C93A089B1898C91A6
:1029B00080648C93938D848D981306C00288F3896C
:1029C000E02D80818F7D80830895CF93DF93EC018C
:1029D000888D8823C9F0EA89FB89808185FD05C03F
:1029E000A889B9898C9186FD0FC00FB607FCF5CF79
:1029F000808185FFF2CFA889B9898C9185FFEDCFC1
:102A0000CE010E94C414E7CFDF91CF910895CF92F9
:102A1000DF92FF920F931F93CF93DF931F92CDB757
:102A2000DEB76C01DC015B969C915B975C968C91A8
:102A30005C97981307C05096ED91FC915197808157
:102A400085FD32C0F601038D10E00F5F1F4F0F733D
:102A50001127F02EF601848DF81211C00FB607FC75
:102A6000F9CFD6015096ED91FC915197808185FF69
:102A7000F1CFC60169830E94C4146981EBCF838DB5
:102A8000E80FF11DE35AFF4F6083D6015B960C936C
:102A90005B975296ED91FC91539780818062808381
:102AA00081E058968C930DC0D6015696ED91FC911D
:102AB000579760835096ED91FC9151978081806487
:102AC000808381E090E00F90DF91CF911F910F9173
:102AD000FF90DF90CF900895BF92CF92DF92EF9258
:102AE000FF92CF93DF93EC016A017B01B22EE8895C
:102AF000F98982E08083411581EE580761057105EF
:102B0000A1F060E079E08DE390E0A70196010E94DA
:102B1000431B215031094109510956954795379575
:102B20002795211580E1380798F0E889F989108206
:102B300060E874E88EE190E0A70196010E94431BD3
:102B400021503109410951095695479537952795E7
:102B5000EC85FD853083EE85FF852083188EEC891A
:102B6000FD89B082EA89FB89808180618083EA895E
:102B7000FB89808188608083EA89FB898081806805
:102B80008083EA89FB8980818F7D8083DF91CF916B
:102B9000FF90EF90DF90CF90BF9008951F920F921B
:102BA0000FB60F9211242F938F939F93EF93FF9360
:102BB000E0915C05F0915D058081E0916205F09106
:102BC000630582FD12C09081809165058F5F8F73D0
:102BD00020916605821751F0E0916505F0E0E45B15
:102BE000FA4F958F8093650501C08081FF91EF9129
:102BF0009F918F912F910F900FBE0F901F9018955E
:102C00001F920F920FB60F9211242F933F934F9361
:102C10005F936F937F938F939F93AF93BF93EF9344
:102C2000FF938CE495E00E94C414FF91EF91BF9153
:102C3000AF919F918F917F916F915F914F913F9154
:102C40002F910F900FBE0F901F9018958CE495E078
:102C50000E94891421E0892B09F420E0822F089535
:102C600010924F0510924E0588EE93E0A0E0B0E080
:102C70008093500590935105A0935205B09353054E
:102C80008CEC92E090934D0580934C0585EC90E0A0
:102C9000909359058093580584EC90E090935B05E0
:102CA00080935A0580EC90E090935D0580935C05DD
:102CB00081EC90E090935F0580935E0582EC90E05C
:102CC000909361058093600586EC90E09093630596
:102CD0008093620510926505109266051092670553
:102CE00010926805089508950E9411130E947316AA
:102CF0000E94A605C6EBD4E10E9455062097E1F399
:102D00000E94B614F9CFCF92DF92EF92FF920F9309
:102D10001F93CF93DF936C017A01EB01E60EF71E50
:102D200000E010E0CE15DF0561F06991D601ED916C
:102D3000FC910190F081E02DC6010995080F191F43
:102D4000F1CFC801DF91CF911F910F91FF90EF90CC
:102D5000DF90CF9008956115710581F0DB010D9032
:102D60000020E9F7AD0141505109461B570BDC012A
:102D7000ED91FC910280F381E02D099480E090E0D8
:102D800008950C94AB16DC01ED91FC910190F0815B
:102D9000E02D09940F931F93CF93DF93EC016DE027
:102DA0000E94C3168C016AE0CE010E94C316800FF8
:102DB000911FDF91CF911F910F9108950F931F9352
:102DC000CF93DF93EC010E94AB168C01CE010E94E1
:102DD000CA16800F911FDF91CF911F910F91089517
:102DE0008F929F92AF92BF92CF92DF92EF92FF921B
:102DF0000F931F93CF93DF93CDB7DEB7A1970FB695
:102E0000F894DEBF0FBECDBF7C01C42EE52FCB01F1
:102E1000D22E19A221E02D1510F02AE0D22E8E011B
:102E20000F5D1F4F8D2C912CA12CB12C6C2D7E2F62
:102E3000A50194010E94431B8C2DD29E8019112460
:102E4000015011098A3014F4805D01C0895CF801D9
:102E50008083211531054105510521F0C22EE32F54
:102E6000CA01E4CFB801C7010E94AB16A1960FB604
:102E7000F894DEBF0FBECDBFDF91CF911F910F91B0
:102E8000FF90EF90DF90CF90BF90AF909F908F908A
:102E90000895CF92DF92EF92FF920F931F93CF93FB
:102EA000DF93EC016A017B012115310579F4E8819A
:102EB000F9810190F081E02D642FDF91CF911F9176
:102EC0000F91FF90EF90DF90CF9009942A30310559
:102ED000E9F477FF1AC06DE20E94C3168C01442703
:102EE0005527BA014C195D096E097F092AE0CE0108
:102EF0000E94F016800F911FDF91CF911F910F91CB
:102F0000FF90EF90DF90CF9008952AE0B701A601DF
:102F1000CE01DF91CF911F910F91FF90EF90DF9045
:102F2000CF900C94F0169A01AB01662757FD60957F
:102F3000762F0C9449170F931F93CF93DF93EC01D7
:102F40009A01AB01662757FD6095762F0E944917BD
:102F50008C01CE010E94CA16800F911FDF91CF9184
:102F60001F910F9108952115310541F4DC01ED9178
:102F7000FC910190F081E02D642F09940C94F016DF
:102F80009A01462F50E060E070E00C94B3179A016C
:102F9000AB0160E070E00C94B3174F925F926F92B8
:102FA0007F928F929F92AF92BF92CF92DF92EF92D9
:102FB000FF920F931F93CF93DF93EC016A017B0184
:102FC000B22E9A01AB01C701B6010E942A1B8823C9
:102FD00019F068ED72E027C026013701E89477F810
:102FE0002FEF3FEF4FE75FE7C301B2010E942A1BBB
:102FF00081110DC02FEF3FEF4FE75FE7C301B20133
:103000000E94321918161CF46CED72E00CC02FEF00
:103010003FEF4FE75FE4C701B6010E94811A18161F
:10302000ACF460EE72E0CE01DF91CF911F910F9171
:10303000FF90EF90DF90CF90BF90AF909F908F90D8
:103040007F906F905F904F900C94AB162FEF3FEFF7
:103050004FE75FECC701B6010E94321987FDE1CF4F
:1030600020E030E0A901C701B6010E94321987FFB4
:103070000AC06DE2CE010E94C3168C01F7FAF094EB
:10308000F7F8F09402C000E010E0A12C60E070E0DE
:1030900080E09FE3AB1441F020E030E040E251E4F7
:1030A0000E943619A394F6CF9B01AC01C701B6016B
:1030B0000E94CE186B017C010E94A3192B013C01D8
:1030C0000E94CF199B01AC01C701B6010E94CD1827
:1030D0006B017C012AE0B301A201CE010E94F0162F
:1030E000080F191FBB2039F065E972E0CE010E947C
:1030F000AB16080F191F7B2C772041F120E030E040
:1031000040E251E4C701B6010E94851A6B017C01BF
:103110000E949E194B01AA2497FCA094BA2C2AE085
:1031200030E0B501A401CE010E944917080F191F14
:10313000C501B4010E94D1199B01AC01C701B601C0
:103140000E94CD186B017C017A94D6CFC801DF9123
:10315000CF911F910F91FF90EF90DF90CF90BF9094
:10316000AF909F908F907F906F905F904F90089559
:103170000C94CD170F931F93CF93DF93EC010E9414
:10318000CD178C01CE010E94CA16800F911FDF91CE
:10319000CF911F910F91089508955058BB27AA27EA
:1031A0000ED075C166D130F06BD120F031F49F3F65
:1031B00011F41EF45BC10EF4E095E7FB51C1E92F59
:1031C00077D180F3BA17620773078407950718F061
:1031D00071F49EF58FC10EF4E0950B2EBA2FA02D41
:1031E0000B01B90190010C01CA01A0011124FF27B4
:1031F000591B99F0593F50F4503E68F11A16F040AF
:10320000A22F232F342F4427585FF3CF46953795AD
:103210002795A795F0405395C9F77EF41F16BA0B72
:10322000620B730B840BBAF09150A1F0FF0FBB1F20
:10323000661F771F881FC2F70EC0BA0F621F731F69
:10324000841F48F4879577956795B795F7959E3FC6
:1032500008F0B3CF9395880F08F09927EE0F979554
:1032600087950895D9D008F481E008950CD00FC156
:1032700007D140F0FED030F021F45F3F19F0F0C0EC
:10328000511139C1F3C014D198F39923C9F35523CF
:10329000B1F3951B550BBB27AA2762177307840749
:1032A00038F09F5F5F4F220F331F441FAA1FA9F3FF
:1032B00033D00E2E3AF0E0E830D091505040E695F1
:1032C000001CCAF729D0FE2F27D0660F771F881F52
:1032D000BB1F261737074807AB07B0E809F0BB0B41
:1032E000802DBF01FF2793585F4F2AF09E3F510565
:1032F00068F0B6C000C15F3FECF3983EDCF3869502
:1033000077956795B795F7959F5FC9F7880F911DDA
:103310009695879597F90895E1E0660F771F881FC6
:10332000BB1F621773078407BA0720F0621B730B79
:10333000840BBA0BEE1F88F7E095089504D06894CB
:10334000B111D9C00895BCD088F09F5790F0B92F23
:103350009927B751A0F0D1F0660F771F881F991FEA
:103360001AF0BA95C9F712C0B13081F0C3D0B1E0FC
:103370000895C0C0672F782F8827B85F39F0B93F0C
:10338000CCF3869577956795B395D9F73EF49095EC
:103390008095709561957F4F8F4F9F4F0895E8946A
:1033A00009C097FB3EF490958095709561957F4F8D
:1033B0008F4F9F4F9923A9F0F92F96E9BB2793953B
:1033C000F695879577956795B795F111F8CFFAF44B
:1033D000BB0F11F460FF1BC06F5F7F4F8F4F9F4F7C
:1033E00016C0882311F096E911C0772321F09EE8DA
:1033F000872F762F05C0662371F096E8862F70E040
:1034000060E02AF09A95660F771F881FDAF7880F19
:103410009695879597F90895990F0008550FAA0B6F
:10342000E0E8FEEF16161706E807F907C0F01216D7
:103430001306E407F50798F0621B730B840B950BDA
:1034400039F40A2661F0232B242B252B21F408952F
:103450000A2609F4A140A6958FEF811D811D0895CC
:1034600097F99F6780E870E060E008959FEF80EC37
:10347000089500240A9416161706180609060895DA
:1034800000240A9412161306140605060895092E40
:103490000394000C11F4882352F0BB0F40F4BF2BAF
:1034A00011F460FF04C06F5F7F4F8F4F9F4F0895EF
:1034B00057FD9058440F551F59F05F3F71F04795E5
:1034C000880F97FB991F61F09F3F79F087950895CA
:1034D000121613061406551FF2CF4695F1DF08C0E9
:1034E000161617061806991FF1CF86957105610506
:1034F00008940895E894BB2766277727CB0197F9AE
:1035000008958ADF08F48FEF08950BD0C0CFB1DFA4
:1035100028F0B6DF18F0952309F0A2CFA7CF112429
:10352000EACFC6DFA0F3959FD1F3950F50E0551F6A
:10353000629FF001729FBB27F00DB11D639FAA2708
:10354000F00DB11DAA1F649F6627B00DA11D661F57
:10355000829F2227B00DA11D621F739FB00DA11D78
:10356000621F839FA00D611D221F749F3327A00D32
:10357000611D231F849F600D211D822F762F6A2FCE
:1035800011249F5750408AF0E1F088234AF0EE0F53
:10359000FF1FBB1F661F771F881F91505040A9F760
:1035A0009E3F510570F05CCFA6CF5F3FECF3983E95
:1035B000DCF3869577956795B795F795E7959F5FC7
:1035C000C1F7FE2B880F911D9695879597F9089561
:1035D00011F40EF44BCF42C073DFD0F39923D9F32B
:1035E000CEF39F57550B87FF47D00024A0E640EA53
:1035F000900180585695979528F4805C660F771F48
:10360000881F20F026173707480730F4621B730B1A
:10361000840B202931294A2BA6951794079420253D
:1036200031254A2758F7660F771F881F20F0261785
:103630003707480730F4620B730B840B200D311DE4
:10364000411DA09581F7B901842F9158880F969557
:1036500087950895E1DE880B990B08959F3F31F01F
:10366000915020F4879577956795B795880F911DB0
:103670009695879597F9089591505040660F771F5A
:10368000881FD2F70895A1E21A2EAA1BBB1BFD01C9
:103690000DC0AA1FBB1FEE1FFF1FA217B307E40731
:1036A000F50720F0A21BB30BE40BF50B661F771F89
:1036B000881F991F1A9469F7609570958095909569
:1036C0009B01AC01BD01CF010895052E97FB1EF4AF
:1036D00000940E947C1B57FD07D00E94431B07FCEF
:1036E00003D04EF40C947C1B509540953095219559
:1036F0003F4F4F4F5F4F089590958095709561951E
:103700007F4F8F4F9F4F0895EE0FFF1F0590F4914D
:10371000E02D09940E94921B332312F48A1B9B0B09
:103720000C94A31BA29FB001B39FC001A39F700D77
:10373000811D1124911DB29F700D811D1124911DB9
:1037400008950E94921BB7FF0895821B930B089562
:103750000E94921BA59F900DB49F900DA49F800D79
:0A376000911D11240895F894FFCF85
:10376A000000E9058000D2000F011FC54B43014F3D
:10377A004B002800202D3E2061636B00435420310A
:10378A002043616C3A2000435420322043616C3A52
:10379A00200056524D53204143207E00414320577A
:1037AA00617665204465746563746564202D2052D2
:1037BA0065616C20506F7765722063616C63206568
:1037CA006E61626C656400555341206D6F646520BB
:1037DA003E20005663616C3A200056726D733A209F
:1037EA000050686173652053686966743A20004125
:1037FA0043204E4F54206465746563746564202DBC
:10380A00204170706172656E7420506F7765722006
:10381A0063616C6320656E61626C65640055534137
:10382A00206D6F646500417373756D696E6720560C
:10383A00524D533A20006E6F2043542064657465DC
:10384A00637465640043542031206465746563744D
:10385A000043542032206465746563740043542025
:10386A0033206465746563740043542034206465AE
:10387A007465637400302044533138423230206416
:10388A00657465637465640052464D363943572042
:10389A00496E69743A20004E6F64652000204672B2
:1038AA00657120003433334D687A003836384D68F4
:1038BA007A003931354D687A00204E6574776F7217
:1038CA006B20004F4B200020282D302900656D6F9A
:1038DA006E50692056004F70656E456E6572677945
:1038EA004D6F6E69746F722E6F72670073746172B6
:1038FA007475702E2E2E0043616C69627261746950
:10390A006F6E3A20005B656D6F6E50692E005D0028
:10391A0020690020670020402000204D487A0020BE
:10392A0055534120002B565A0000000007158316F4
:10393A008914A2149414E5146E616E00696E66000F
:04394A006F7666002E
:00000001FF
